{
  "contractName": "SimpleSample",
  "abi": [
    {
      "constant": true,
      "inputs": [
        {
          "name": "",
          "type": "address"
        }
      ],
      "name": "messages",
      "outputs": [
        {
          "name": "",
          "type": "bytes32"
        }
      ],
      "payable": false,
      "stateMutability": "view",
      "type": "function"
    },
    {
      "inputs": [],
      "payable": false,
      "stateMutability": "nonpayable",
      "type": "constructor"
    },
    {
      "constant": true,
      "inputs": [],
      "name": "getMessage",
      "outputs": [
        {
          "name": "",
          "type": "bytes32"
        }
      ],
      "payable": false,
      "stateMutability": "view",
      "type": "function"
    },
    {
      "constant": false,
      "inputs": [
        {
          "name": "messageIn",
          "type": "bytes32"
        }
      ],
      "name": "setMessage",
      "outputs": [],
      "payable": false,
      "stateMutability": "nonpayable",
      "type": "function"
    }
  ],
  "bytecode": "0x608060405234801561001057600080fd5b50610120806100206000396000f30060806040526004361060525763ffffffff7c01000000000000000000000000000000000000000000000000000000006000350416635fdd59f881146057578063b32fead5146094578063ce6d41de1460ab575b600080fd5b348015606257600080fd5b50608273ffffffffffffffffffffffffffffffffffffffff6004351660bd565b60408051918252519081900360200190f35b348015609f57600080fd5b5060a960043560cf565b005b34801560b657600080fd5b50608260e1565b60006020819052908152604090205481565b33600090815260208190526040902055565b33600090815260208190526040902054905600a165627a7a72305820b49457a1f13cb89c8238f412bf2ddb9a10c2bb60209015d4726fa37949f8a4960029",
  "source": "pragma solidity ^0.4.24;\r\n\r\n/**\r\n * @title Simple Sample Smart Contract\r\n */\r\ncontract SimpleSample {\r\n\r\n    mapping(address => bytes32) public messages;\r\n\r\n    /**\r\n     * @dev Constructor\r\n    */\r\n    constructor() public {\r\n    }\r\n\r\n    /**\r\n     * Get the message for the user\r\n     */\r\n    function getMessage() public view returns(bytes32) {\r\n        return (messages[msg.sender]);\r\n    }\r\n    \r\n    /**\r\n     * Set the message for the user\r\n     */\r\n    function setMessage(bytes32 messageIn) public {\r\n        messages[msg.sender]=messageIn;\r\n    }\r\n}",
  "sourcePath": "D:\\Projects\\Blockchain\\MLGBlockchain\\USDVault\\contracts\\SimpleSample.sol",
  "compiler": {
    "name": "solc",
    "version": "0.4.24+commit.e67f0147.Emscripten.clang"
  },
  "schemaVersion": "2.0.1",
  "updatedAt": "2018-09-29T16:18:58.870Z"
}